:020000040800F2
:10000000C0060020A9010008CF17000891130008BE
:10001000CD170008D9020008691D00080000000083
:10002000000000000000000000000000F3170008BE
:10003000DB02000800000000F1170008F5170008B7
:10004000C3010008C3010008C3010008C301000880
:10005000C3010008C3010008C3010008C301000870
:10006000C3010008C3010008C3010008C301000860
:10007000C3010008C3010008C3010008C301000850
:10008000C3010008C3010008C3010008000000000C
:10009000000000000000000000000000C301000894
:1000A000C3010008C3010008C3010008C301000820
:1000B000C3010008C3010008C3010008C301000810
:1000C000C3010008C3010008C3010008C301000800
:1000D000C3010008C3010008C301000800000000BC
:1000E000C3010008C3010008C301000800000000AC
:1000F000000000000000000000000000C301000834
:1001000000000000C3010008C3010008C30100088B
:1001100000000000000000000000000000000000DF
:10012000C3010008C3010008C3010008C30100089F
:10013000C3010008000000000000000000000000F3
:10014000000000000000000000000000C3010008E3
:10015000C3010008C3010008C3010008C30100086F
:10016000C3010008C30100080000000000000000F7
:10017000000000000000000000000000000000007F
:1001800000000000C30100080000000000000000A3
:10019000C3010008DFF80CD000F08CF800480047DD
:1001A000951D0008C0060020064880470648004705
:1001B000FEE7FEE7FEE7FEE7FEE7FEE7FEE7FEE717
:1001C000FEE7FEE77D180008950100082DE9F05FC5
:1001D0000546002092469B468846064681464024B6
:1001E0001BE0284641464746224600F053F8534656
:1001F0005A46C01A914110D311461846224600F0C3
:100200003AF82D1A67EB01084F46224601200021DB
:1002100000F031F817EB00094E41201EA4F1010453
:10022000DFDC484631462A464346BDE8F09F40EAB7
:1002300001039B0703D009E008C9121F08C0042A64
:10024000FAD203E011F8013B00F8013B521EF9D24B
:100250007047D2B201E000F8012B491EFBD2704773
:100260000022F6E710B513460A4604461946FFF782
:10027000F0FF204610BD202A04DB203A00FA02F1EC
:10028000002070479140C2F1200320FA03F3194384
:1002900090407047202A04DB203A21FA02F0002126
:1002A000704721FA02F3D040C2F120029140084386
:1002B00019467047064C074D06E0E06840F0010320
:1002C00094E8070098471034AC42F6D3FFF766FF76
:1002D0000820000828200008FEE770472DE9F84FA5
:1002E000DFF860B100224FF001084FF0030A4FF031
:1002F0000F090BF1040E00BF0B6808FA02F423404B
:10030000A3426ED14D68022D01D0122D0ED1D50819
:1003100000EB850CDCF820505607F70E09FA07F6BB
:10032000B5430E69BE402E43CCF8206006685500E8
:100330000F790AFA05FC07F0030726EA0C06AF401E
:10034000374307604E68012E05D0022E03D0112ED0
:1003500001D0122E0ED18668CF6826EA0C06AF4077
:10036000374387604668A6430C79C4F30014944071
:1003700034434460C6688C6826EA0C06AC403443BB
:10038000C4604C68E40056D52F4C256845F4804580
:100390002560246822F0030504F4804400942B4C6B
:1003A0002E19D6F8084895072F0F09FA07F5AC4320
:1003B000274DA84201D1002515E0264DA84201D1C4
:1003C000012510E0244DA84201D102250BE0234D68
:1003D000A84201D1032506E0214DA84202D10425FF
:1003E00001E028E00725BD402543C6F80858DBF8A2
:1003F00000405D464E689C43F60300D51C432C60CC
:10040000DEF8004075464E689C43B60300D51C4399
:100410002C600C4D08352C684E689C43F60200D5C4
:100420001C432C60074D0C352C684E689C43B6026B
:1004300000D51C432C60521C102AFFF45DAFBDE8B0
:10044000F88F0000003C0140443802400030014079
:10045000000002400004024000080240000C02407C
:10046000001002400AB1816170470904FBE70000F7
:1004700001488068704700002400002070B5040027
:1004800004D094F83D00002510B106E0012070BDB5
:1004900084F83C50204600F075F8242084F83D0094
:1004A0002068016821F00101016000F0C1FA3349C0
:1004B0002268B0FBF1F15160314A6368934206D97A
:1004C0004FF4967359434FF47A73B1FBF3F12368F9
:1004D000491C1962616891420BD84900B0FBF1F2E6
:1004E000C2F30B02042A01D2042019E0B0FBF1F0A0
:1004F00016E0A3689BB301EBC10202EB0112B0FB53
:10050000F2F242F48042120530D04BB301EBC1024B
:1005100002EB0111B0FBF1F040F4804040F40040E8
:100520002168C861D4E90701084321680860D4E95B
:100530000310084321688860D4E905010843216855
:10054000C8602068016841F0010101602564202035
:1005500084F83D00256384F83E50002070BD00E023
:1005600006E001EB4102B0FBF2F2CCE70120D7E755
:1005700001EB4101B0FBF1F0D0E7000040420F0079
:10058000A08601002DE9F04186B00446142168469A
:10059000FFF766FE2B4A2168DFF8AC802A48122458
:1005A00001250326042708F11008914219D101689A
:1005B00041F0020101600068694600F00200059008
:1005C000C0208DE8F1002148FFF788FED8F8001020
:1005D00041F40011C8F80010D8F8000000F4001031
:1005E0002BE01B4A914229D1016841F004010160CE
:1005F000016801F004010591016841F00101016009
:100600000068694600F00100059050158DE8F10082
:100610001048FFF763FE4FF480708DE8F1006946E3
:100620000D48FFF75BFED8F8001041F40001C8F850
:100630000010D8F8000000F40000059006B0BDE8F6
:10064000F0810000005400403038024000040240B5
:10065000005C004000080240000002402DE9F84F15
:100660009A46164688460446FFF702FF054694F868
:100670003D0020287DD1B8F1000F49D0002EFCD0DC
:1006800094F83C00012874D0012084F83C002068D4
:100690000168C90703D1016841F0010101602068C8
:1006A000016821F400610160222084F83D002027C8
:1006B00084F83E704FF00009C4F84090C4F82480DC
:1006C00066854648E062608D20852068016841F4B7
:1006D0008061016053464A4641492046009500F03A
:1006E0006CFE002854D12068C8464169806900909A
:1006F0002BE02A465146204600F08FFE0028206855
:1007000007D0016821F480610160206C20283FD06F
:100710005FE00169606A421C62620170208D401EC8
:100720002085608D401E608520684169C943490766
:100730000BD456B10169606A421C62620170208D5F
:10074000401E2085608D401E6085208D0028D0D100
:10075000564620E0204600F01CFE88B926B1FFF77F
:1007600087FE401BB04216D9206C40F02001216466
:1007700000E030E0C4F8308084F83D7084F83C80BC
:100780002068016821F480610160206C042820D079
:100790000320BDE8F88F20684069C043C006D9D463
:1007A0002068414642690092026842F001020260FC
:1007B0002068026822F48062026084F83D7084F848
:1007C0003E8008480268521C026084F83C100020F9
:1007D000DFE70120DDE70220DBE700000000FFFF8C
:1007E00002000100200000200248816802781144C4
:1007F00081607047240000200B4810B5016841F467
:1008000000710160016841F480610160016841F498
:1008100080710160032000F061F8002000F006F80C
:1008200000F024F8002010BD003C024070B50D4DD2
:1008300004464FF47A712878B1FBF0F00A49096850
:10084000B1FBF0F000F06CFB48B9102C07D200228D
:100850002146501E00F022F800206C6070BD01207F
:1008600070BD000024000020300000200A4808B5B8
:10087000016841F480410160006800F4804000900C
:100880000548001F016841F080510160006800F0D8
:100890008050009008BD000044380240F0B40E4B78
:1008A0001B680C46C3F30223C3F10705042D00D9CE
:1008B0000425191D072901D2002300E0DB1E0126B3
:1008C00006FA05F1491E214099409E40761E1640C9
:1008D0003143F0BC00F07CBF0CED00E0064900F0B5
:1008E000070208684FF6FF03184040EA0220034A57
:1008F00010430860704700000CED00E00000FA05AE
:100900002DE9F0470E46050065D0DFF81481D8F8D0
:100910000000F7B200F00F00B04207D288F8007074
:10092000D8F8000000F00F00B04254D128683D4CC8
:10093000810712D5400703D5206840F4E0502060BD
:100940002878000703D5206840F4604020602068C4
:10095000A96820F0F000084320602878C0072DD057
:10096000304968680839012812D0022813D00328BA
:1009700011D00968890700292DDA216821F00301C7
:1009800001432160FFF774FD814641F2883A0EE091
:1009900009688903EFE709688901ECE7FFF768FD5B
:1009A000A0EB0901514502D90320BDE8F08720687A
:1009B000696800F00C00B0EB810FEFD1D8F800109F
:1009C000404601F00F01B14207D90770006800F0FE
:1009D0000F00B04201D00120E7E72878400705D595
:1009E0002068E96820F4E050084320602878000778
:1009F00006D52068296920F4604040EAC1002060E3
:100A000000F036F82168084AC1F30311515CC84070
:100A1000064908600020FFF709FF0020C5E7000035
:100A2000003C024008380240F01F0008300000205F
:100A30000448054900680968044AC1F38221515CF1
:100A4000C8407047300000200838024000200008ED
:100A50000448054900680968044AC1F34231515C01
:100A6000C8407047300000200838024000200008CD
:100A7000154810B5006810F00C02144813D0144942
:100A8000042A0FD0082A0ED10F4C241F2268236895
:100A900002F03F025B0207D52068C0F38810A0FB7C
:100AA000010106E0084610BD2168C1F38811A1FBD1
:100AB00000010023FFF78AFB2168C1F30141491CB3
:100AC0004900B0FBF1F010BD083802400024F400EA
:100AD00040787D012DE9F84F050076D02878DFF8C1
:100AE000F8B2BE4CC00749D0DBF800105846C1F33D
:100AF0008101012908D00068C0F3810002280AD1D1
:100B0000201D0068400206D52068800336D568683D
:100B10000028E2D032E06868B0F5803F10D0B0F530
:100B2000A02F206810D020F480302060206820F4AE
:100B3000802020606868A0B1FFF79AFC06460CE0B0
:100B4000206840F48030F4E740F480202060F7E72C
:100B5000FFF78EFC801B642873D820688003F7D5CC
:100B60000CE0FFF785FC064605E000BFFFF780FCC0
:100B7000801B6428F0D820688003F7D42878DFF839
:100B8000608280074FF000093ED5DBF80010584620
:100B900011F00C0F09D00068C0F3810002280BD1BE
:100BA0008D48001F0068400206D42068800715D5D4
:100BB000E868012809D111E0E868B8B10120C8F857
:100BC0000000FFF755FC064605E002E1FFF750FC88
:100BD000801B0228C0D820688007F7D520682969C3
:100BE00020F0F80040EAC10020600DE0C8F8009055
:100BF000FFF73EFC064604E0FFF73AFC801B0228A4
:100C00001FD820688007F7D42878000722D5724EB5
:100C1000744869696C3671B101210160FFF728FCE5
:100C2000074604E0FFF724FCC01B022809D83068FF
:100C30008007F7D50EE0C0F80090FFF719FC0746D3
:100C400005E083E0FFF714FCC01B02287ED8306863
:100C50008007F7D42878400768D5DFF87CA1002703
:100C60000AF1380ADAF80000C0000BD4DAF80010F4
:100C700041F08051CAF80010DAF80000012700F0B6
:100C800080500090584E3068C00510D4306840F451
:100C900080703060FFF7ECFB009005E0FFF7E8FBA9
:100CA0000099401A022851D83068C005F6D54A4E3E
:100CB000A868683601280FD00528306810D020F0C9
:100CC00001003060306820F004003060A868B8B1DE
:100CD000FFF7CEFB00900FE0306840F00100F4E732
:100CE00040F004003060F7E7FFF7C2FB0099411ABB
:100CF00041F28830814264D830688007F4D50EE034
:100D0000FFF7B6FB009007E0FFF7B2FB0099411A2E
:100D100041F28830814254D830688007F4D42FB132
:100D2000DAF8001021F08051CAF80010A869C0B3A9
:100D3000DBF80010C1F3810102294AD0022848469D
:100D400007D0C8F86000FFF793FB00E039E00546E4
:100D50003AE04746C8F86000FFF78AFB064604E021
:100D6000FFF786FB801B02282BD820688001F7D470
:100D7000D5E907010843A96A1C4A490802EB014169
:100D80006A6A41EA8211084395F82C1040EA016131
:100D90001148001F016001203866FFF769FB054616
:100DA00005E014E0FFF764FB401B022809D8206827
:100DB0008001F7D50BE000BFFFF75AFB401B02286C
:100DC00002D90320BDE8F88F20688001F4D4002008
:100DD000F8E70120F6E7000008380240003802403A
:100DE00000004742800E4742007000400000FFFFB5
:100DF00070B5040005D00025A56294F8510010B12B
:100E000006E0012070BD84F85050204600F030F814
:100E1000022084F851002068016821F0400101603F
:100E2000D4E901010843D4E903121143084361697D
:100E30000843218B01F400710843E1690843216AEA
:100E40000843A16A084321680860A069042101EAF7
:100E50001040616A0843216848602068C16921F434
:100E60000061C1616565012084F85100002070BDFA
:100E700030B587B0044614216846FFF7F1F9234DD9
:100E800022680021224802230324AA421CD1204ABE
:100E90001032156845F400451560126802F40042EE
:100EA0000592026842F0040202600068CDE9021473
:100EB00000F0040005904FF4E050CDE90003062057
:100EC0000490694613481DE0134DAA421CD1104AF4
:100ED0001432156845F400551560126802F400528A
:100EE0000592026842F0100202600068CDE9021427
:100EF00000F0100005907420CDE900030520049057
:100F000069460648FFF7EAF907B030BD003C0040EB
:100F10003038024000080240003401400010024016
:100F200010B5401EB0F1807F01D3012010BD4FF0FD
:100F3000E02460610F21601700F04AFC0020A061EE
:100F400007202061002010BD10B590F83820012A3C
:100F500025D0012280F83820CA688C6822F44072BB
:100F600022434C6822F4806222430C6822F400621F
:100F700022430C6922F4805222434C6922F400522D
:100F800022438C6922F48042224322F40041026809
:100F900000232143516480F83830002010BD022026
:100FA00010BD30B590F83820012A20D0012280F8F9
:100FB0003820022380F8393003685C6824F070041C
:100FC0005C6003685C680D682C435C6003689C6827
:100FD00024F080049C6003689C6849680C439C6012
:100FE00080F83920002180F83810084630BD0220F2
:100FF00030BD000030B587B0044614216846FFF7C5
:101000002FF924682A4800222A4902230125844214
:101010000FD1086840F0100008600868694600F0C9
:10102000100005904FF420600090CDE90132224875
:1010300021E02248B4F1804F10D0214DAC4221D1A3
:101040000C6844F001040C60096801F0010105918D
:10105000C0210091CDE90132694625E00C6844F0D9
:1010600001040C60096801F0010105910F21009154
:10107000CDE901326946CDE9032500BFFFF72EF91E
:1010800007B030BD0F488442FAD1086840F008002C
:1010900008600868694600F0080005904FF4704049
:1010A0000090CDE901320848CDE90323E6E70000CE
:1010B00000000140303802400010024000000240B1
:1010C0000004004000080040000C024070B50446D7
:1010D00090F838000D4601280DD0012684F83860BC
:1010E000022084F8390042B1042A18D0082A2AD0F4
:1010F0000C2A4DD139E0022070BD206800F03CFC84
:101100002068816941F0080181612068816921F0CE
:1011100004018161206881692A69114311E0206816
:1011200000F052FC2068816941F40061816120680F
:10113000816921F480618161206881692A6941EABD
:101140000221816124E0206800F06AFC2068C16906
:1011500041F00801C1612068C16921F00401C16149
:101160002068C1692A69114311E0206800F084FCFD
:101170002068C16941F40061C1612068C16921F43E
:101180008061C1612068C1692A6941EA0221C161A7
:1011900084F83960002084F8380070BD10B5040070
:1011A00003D094F8390010B107E0012010BD0020F1
:1011B00084F83800204600F00DF8022084F8390049
:1011C000211D206800F084FB012084F839000020F4
:1011D00010BD000008B501681448814201D11448CF
:1011E00010E01348001FB1F1804F0BD0114A91421B
:1011F00010D1016841F002010160006800F00200B6
:10120000009008BD016841F001010160006800F034
:101210000100F5E7084A9142F3D1016841F0040169
:101220000160006800F00400EAE7000000000140EF
:1012300044380240000400400008004010B5044655
:101240000068012200F08CFB07492068884203D126
:10125000416C41F4004141642068016841F00101A2
:101260000160002010BD00000000014010B50446E0
:101270000068002200F074FB104B41F2111120684D
:101280008A10984209D1036A0B4206D1036A1342BD
:1012900003D1436C23F4004343642068036A0B4288
:1012A00006D1016A114203D1016821F001010160F8
:1012B000012084F83900002010BD0000000001402A
:1012C00070B5040004D094F83900002510B106E090
:1012D000012070BD84F83850204600F023F8242007
:1012E00084F839002068C16821F40051C1602046AB
:1012F00000F0E4FB2068016921F49041016120685D
:10130000416921F02A0141612068C16841F400511E
:10131000C160E563202084F8390084F83A00002099
:1013200070BD000010B586B0044614216846FEF773
:1013300097FF14492068884221D11348016841F081
:1013400010010160006800F0100005900E4814388C
:10135000016841F0010101600068694600F0010088
:1013600005904FF4C060009002200190012002908F
:1013700003200390072004900448FEF7AFFF06B057
:1013800010BD00000010014044380240000002403F
:10139000FEE701684A69D24352050CD46FF48062BB
:1013A0004A6104210164002140F8301F2022427369
:1013B000017301207047002070472DE9F0471E4659
:1013C00090460D460446C1F30747DDF8209012E031
:1013D000701C10D02EB1FFF74BF8A0EB0900B04203
:1013E00009D9002044F8300F20216173A0732073C5
:1013F0000320BDE8F0872068012F0AD0806925EA24
:1014000000000004000C06D000214145E0D000207F
:10141000EFE74069F3E70121F7E72DE9F041002507
:1014200090460E460446202721E04069C043C0068E
:101430000CD421686FF0100048612564256384F89E
:101440003D7084F83C500120BDE8F0812EB1FFF7DB
:101450000FF8A0EB0800B04209D954F8400F40F053
:10146000200044F80409677025700320ECE7206829
:101470004169C9434906D8D40020E5E72DE9F04386
:1014800087B014216846FEF7EBFE3B480024016854
:1014900041F010010160016801F01001059101683F
:1014A00041F004010160016801F004010591016847
:1014B00041F080010160016801F08001059101683F
:1014C00041F001010160016801F00101059101682D
:1014D00041F002010160016801F00201059101681B
:1014E00041F0080101600068244F00F008004CF250
:1014F000CF050590002229463846FEF7B3FFDFF8F6
:1015000080804FF44056002231464046FEF7AAFF45
:10151000DFF87090002231464846FEF7A3FF0095A1
:101520000125CDE90154694638460394FEF7D6FEFD
:101530003020CDE90004694638460294FEF7CEFE1D
:101540007011CDE90004694640460294FEF7C6FEDC
:101550000096CDE90154694640460394FEF7BEFE6D
:101560000096CDE90154694648460394FEF7B6FE5D
:1015700007B0BDE8F08300003038024000080240A8
:1015800000100240000402400B480A494FF4007268
:1015900001604FF48271416000218160C16001618E
:1015A000C0E90512C1610162416281620A21C16222
:1015B000FFF71EBC003C0040DC0000200B480A493D
:1015C0004FF4802201604FF48271416000218160FC
:1015D000C1600161C0E90512C161016241628162BD
:1015E0000A21C162FFF704BC00340140340100202D
:1015F00010B590B000240E941C2168460F94FEF79D
:101600002FFE1C2107A8FEF72BFE1B481949C0E935
:1016100000148460C46004614461FFF7BFFD0E9450
:101620000EA915480F94FFF7BCFC6020CDE900041B
:101630000294039404940594002269460E4806948B
:10164000FFF744FD042269460B48FFF73FFD07946E
:10165000089409944FF400500A94CDE90B4007A96F
:1016600005480D94FFF770FC0348FFF7C3FC10B06A
:1016700010BD0000000001408C01002010B58AB0B0
:10168000002407941C2168460894FEF7E9FD1748DA
:101690004FF08041C0E900148460C4600461FFF72A
:1016A0007DFD079407A911480894FFF77AFC602094
:1016B000CDE900040294002269460C480494FFF727
:1016C00005FD042269460948FFF700FD0822694626
:1016D0000648FFF7FBFC0C2269460448FFF7F6FCBE
:1016E0000248FFF787FC0AB010BD0000C8010020C7
:1016F00010B58AB0002407941C2168460894FEF7B0
:10170000AFFD14481249016040F24731C0E90114AD
:1017100040F2CF71C0E90314FFF740FD079407A919
:101720000C480894FFF73DFC6020CDE900040294CA
:101730000022694607480494FFF7C8FC0422694662
:101740000448FFF7C3FC0348FFF754FC0AB010BD80
:10175000000400400402002010B58AB00024079461
:101760001C2168460894FEF77BFD17481549C0E91F
:1017700000148460C4600461FFF710FD079407A99A
:1017800011480894FFF70DFC6020CDE90004029495
:10179000002269460C480494FFF798FC042269462D
:1017A0000948FFF793FC082269460748FFF78EFCBB
:1017B0000C2269460448FFF789FC0348FFF71AFC2E
:1017C0000AB010BD0008004040020020FEE770474C
:1017D0000907090E002806DA00F00F0000F1E020EA
:1017E00080F8141D704700F1E02080F80014704765
:1017F00070477047FEF7F8BF30B593B030216846A8
:10180000FEF72EFD14210CA8FEF72AFD194800252D
:10181000016841F080510160006800F08050119033
:101820001548016821F4404141F40041016000681D
:10183000022400F4404011900120039010200490F5
:10184000009406940820CDE907505420CDE90904FE
:1018500004200B906846FFF73DF90CA90F2081E8A2
:101860003100E002CDE90F0502210CA8FFF748F88E
:1018700013B030BD4038024000700040104801688D
:1018800041F4700101600F48016841F001010160FD
:101890000C4A00210832116002680B4B1A400260AA
:1018A000031D0A4A1A60026822F480220260054879
:1018B0000C3001600249580680390860704700000A
:1018C00088ED00E000380240FFFFF6FE10300024F3
:1018D000F0B502681B4B1C4C9F031C4D1C4E9842DC
:1018E00007D0B84205D0A04203D0A84201D0B042F0
:1018F00004D122F0700C4A6842EA0C02984210D0DF
:10190000B8420ED0A0420CD0A8420AD0B04208D0B3
:10191000104CA04205D0104CA04202D00F4CA04267
:1019200003D122F44074CA68224302608A68C2620A
:101930000A688262984201D109690163012141610B
:10194000F0BD00000000014000040040000800401D
:10195000000C0040004001400044014000480140AC
:1019600010B50123046A8B409C430462036A8A40D9
:101970001343036210BD000030B5026A22F0010279
:101980000262026A4368846924F073050C682C4380
:1019900022F002058A682A430A4DA8420BD122F0A0
:1019A0000805CA6823F440732A434D6922F00402F3
:1019B0001D438B692B434360846149684163026224
:1019C00030BD00000000014030B5026A22F0100274
:1019D0000262026A436884690D6824F4E64444EABA
:1019E00005248D6822F0200242EA05120B4DA84220
:1019F0000ED1CD6822F0800242EA05124D6923F42F
:101A0000406343EA85038D6922F0400243EA85037F
:101A10004360846149688163026230BD0000014017
:101A200030B5026A22F480720262036A4268C469B5
:101A300023F4007324F073050C682C438D6843EA8B
:101A400005230C4DA8420ED1CD6823F4006343EA70
:101A500005234D6922F4405242EA05128D6923F4B0
:101A6000806342EA05124260C4614968C16303624F
:101A700030BD00000000014030B5026A22F48052FF
:101A80000262046A4268C3690D6823F4E64343EACC
:101A900005238D6824F4005444EA0534064DA84219
:101AA00004D14D6922F4804242EA85124260C3614A
:101AB00049680164046230BD000001402DE9F04135
:101AC00004460068016921F44052E1681143016154
:101AD0002168C86849F20C6290432369A268E569ED
:101AE0001A4363692B431A430243CA602168486959
:101AF00020F44072A06910434861E1696425B1F5A2
:101B0000004F9748974A21684FF032083FD09142E2
:101B100001D081427CD1FEF79BFF00EBC00101EBBD
:101B2000001061688900B0FBF1F6FEF791FF00EB51
:101B3000C00101EB001061688900B0FBF1F0B0FB5F
:101B4000F5F06FF01801484306EB800108EB011037
:101B5000B0FBF5F000F0F006FEF77AFF00EBC001F5
:101B600001EB001061688900B0FBF1F0B0FBF5F00B
:101B700006EB0016FEF76CFF00EBC00101EB001056
:101B800061688900B0FBF1F7FEF762FFD2E0914295
:101B900001D081423DD1FEF75BFF00EBC00101EBBC
:101BA000001061684900B0FBF1F0B0FBF5F00601F0
:101BB000FEF74EFF00EBC00101EB00106168490029
:101BC000B0FBF1F7FEF744FF00EBC00101EB0010A2
:101BD00061684900B0FBF1F0B0FBF5F06FF018015F
:101BE000484307EB800108EBC100B0FBF5F000F0C3
:101BF000F80006EB4006FEF72BFF00EBC00101EBFF
:101C0000001061684900B0FBF1F7FEF721FF3CE0EE
:101C100055E0FEF70DFF00EBC00101EB001061681D
:101C20004900B0FBF1F0B0FBF5F00601FEF700FF54
:101C300000EBC00101EB001061684900B0FBF1F757
:101C4000FEF7F6FE00EBC00101EB001061684900F1
:101C5000B0FBF1F0B0FBF5F06FF01801484307EB73
:101C6000800108EBC100B0FBF5F000F0F80006EBD6
:101C70004006FEF7DDFE00EBC00101EB00106168DD
:101C80004900B0FBF1F7FEF7D3FE00EBC00101EB1A
:101C9000001061684900B0FBF1F0B0FBF5F06FF0A7
:101CA0001801484307EB800108EBC100B0FBF5F0D9
:101CB00000F00700216830448860BDE8F081FEF73D
:101CC000B7FE00EBC00101EB001061688900B0FBBA
:101CD000F1F6FEF7ADFE00EBC00101EB001061680C
:101CE0008900B0FBF1F0B0FBF5F06FF0180148434C
:101CF00006EB800108EB0110B0FBF5F000F0F006F8
:101D0000FEF796FE00EBC00101EB00106168890050
:101D1000B0FBF1F0B0FBF5F006EB0016FEF788FE25
:101D200000EBC00101EB001061688900B0FBF1F726
:101D3000FEF77EFE00EBC00101EB00106168890038
:101D4000B0FBF1F0B0FBF5F06FF01801484307EB82
:101D5000800108EB0110B0FBF5F000F00F00A9E7DF
:101D60000014014000100140FEE702E008C8121F05
:101D700008C1002AFAD170477047002001E001C174
:101D8000121F002AFBD1704701480068704700000D
:101D900020000020A0B0FEF72FFDFFF72DFDFFF77C
:101DA0006DFB62496248634C002580E832000E14E6
:101DB000C0E9035645618561C5610562FEF75EFBBA
:101DC0005B485D49543080E832001421C160C0E9AD
:101DD00004658561C5610562FEF750FBFFF7D4FB22
:101DE000FFF7ECFBFFF704FCFFF748FCFFF780FC74
:101DF000FFF7B2FC5248514901604FF4E131C0E9AC
:101E000001150C21C560C0E904518561C561FFF76A
:101E100057FADFF830814A4F14A89626783F4FF0E2
:101E2000040983464FF47A7AA8F118041F904048B9
:101E300005231A4643495430FEF710FC20696061BF
:101E4000FFF7A2FF20616169884202D0FEF710FB14
:101E5000A06098F800104046242904D025706570D1
:101E6000A570E5700CE04178217082786270C378CB
:101E7000A37098F80400E0704C2947D06C2948D032
:101E80002671A078522848D072284AD066712C4911
:101E90003922783910A8FEF7CAF997F839008DF879
:101EA000790020792C22CDE90B5068461F99FEF766
:101EB000BEF90DF1400C9CE80F0000F045F82049F8
:101EC0003922783910A8FEF7B2F997F839008DF861
:101ED000790061792C22CDE90B9159466846FEF7CD
:101EE000A6F90DF1400C9CE80F0000F02DF8FEF76C
:101EF000BFFAE060FEF7BCFAA168401A504596D3DD
:101F000000F03EF8FEF7B4FAA06090E706EB52004E
:101F100001E0A6EB52002071B3E7E07806EB500039
:101F200002E0E078A6EB50006071B0E7005400409A
:101F300034000020A0860100005C00400010014039
:101F40007C020020180000200FB430B587B00AA82A
:101F5000DDE919452146FFF789F96020CDE9000543
:101F6000002002900490224669460AA8FFF7AEF8C6
:101F700021460AA8FFF762F907B030BC5DF814FBF0
:101F800070B59CB0392218490DA8FEF750F9164CCF
:101F900014F8390F8DF86D0096250026CDE90B65F4
:101FA0002C2211A96846FEF742F90DF1340C9CE889
:101FB0000F00FFF7C9FF39220B490DA8FEF737F9CB
:101FC00020788DF86D000420CDE90B052C2211A995
:101FD0006846FEF72CF90DAC94E80F00FFF7B4FF4C
:101FE000024806701CB070BD0402002018000020DA
:101FF00000000000000000000102030406070809B9
:102000000000000001020304282000080000002056
:10201000340000006A1D00085C2000083400002025
:102020008C0600007A1D0008000000009696000053
:1020300000000000000000000000000000000000A0
:10204000000000000000000000000000010000008F
:0C20500010000000000000000024F4005C
:040000050800019559
:00000001FF
