:020000040800F2
:1000000088040020A9010008910F0008490D00088C
:100010008F0F0008B50200088510000800000000DE
:10002000000000000000000000000000B50F000804
:10003000B702000800000000B30F0008B70F000867
:10004000C3010008C3010008C3010008C301000880
:10005000C3010008C3010008C3010008C301000870
:10006000C3010008C3010008C3010008C301000860
:10007000C3010008C3010008C3010008C301000850
:10008000C3010008C3010008C3010008000000000C
:10009000000000000000000000000000C301000894
:1000A000C3010008C3010008C3010008C301000820
:1000B000C3010008C3010008C3010008C301000810
:1000C000C3010008C3010008C3010008C301000800
:1000D000C3010008C3010008C301000800000000BC
:1000E000C3010008C3010008C301000800000000AC
:1000F000000000000000000000000000C301000834
:1001000000000000C3010008C3010008C30100088B
:1001100000000000000000000000000000000000DF
:10012000C3010008C3010008C3010008C30100089F
:10013000C3010008000000000000000000000000F3
:10014000000000000000000000000000C3010008E3
:10015000C3010008C3010008C3010008C30100086F
:10016000C3010008C30100080000000000000000F7
:10017000000000000000000000000000000000007F
:1001800000000000C30100080000000000000000A3
:10019000C3010008DFF80CD000F07AF800480047EF
:1001A000A51000088804002006488047064800473C
:1001B000FEE7FEE7FEE7FEE7FEE7FEE7FEE7FEE717
:1001C000FEE7FEE731100008950100082DE9F05F19
:1001D0000546002092469B468846064681464024B6
:1001E0001BE0284641464746224600F041F8534668
:1001F0005A46C01A914110D311461846224600F0C3
:1002000028F82D1A67EB01084F46224601200021ED
:1002100000F01FF817EB00094E41201EA4F1010465
:10022000DFDC484631462A464346BDE8F09FD2B25D
:1002300001E000F8012B491EFBD270470022F6E7CF
:1002400010B513460A4604461946FFF7F0FF20464C
:1002500010BD202A04DB203A00FA02F1002070478A
:100260009140C2F1200320FA03F3194390407047F4
:10027000202A04DB203A21FA02F00021704721FAFB
:1002800002F3D040C2F12002914008431946704762
:10029000064C074D06E0E06840F0010394E80700D3
:1002A00098471034AC42F6D3FFF778FFB01200083D
:1002B000D0120008FEE7704770B5044600F0D2F88F
:1002C0000546601C02D004480078044400F0CAF8D7
:1002D000401BA042FAD370BD240000202DE9F84F46
:1002E000DFF860B100224FF001084FF0030A4FF031
:1002F0000F090BF1040E00BF0B6808FA02F423404B
:10030000A3426ED14D68022D01D0122D0ED1D50819
:1003100000EB850CDCF820505607F70E09FA07F6BB
:10032000B5430E69BE402E43CCF8206006685500E8
:100330000F790AFA05FC07F0030726EA0C06AF401E
:10034000374307604E68012E05D0022E03D0112ED0
:1003500001D0122E0ED18668CF6826EA0C06AF4077
:10036000374387604668A6430C79C4F30014944071
:1003700034434460C6688C6826EA0C06AC403443BB
:10038000C4604C68E40056D52F4C256845F4804580
:100390002560246822F0030504F4804400942B4C6B
:1003A0002E19D6F8084895072F0F09FA07F5AC4320
:1003B000274DA84201D1002515E0264DA84201D1C4
:1003C000012510E0244DA84201D102250BE0234D68
:1003D000A84201D1032506E0214DA84202D10425FF
:1003E00001E028E00725BD402543C6F80858DBF8A2
:1003F00000405D464E689C43F60300D51C432C60CC
:10040000DEF8004075464E689C43B60300D51C4399
:100410002C600C4D08352C684E689C43F60200D5C4
:100420001C432C60074D0C352C684E689C43B6026B
:1004300000D51C432C60521C102AFFF45DAFBDE8B0
:10044000F88F0000003C0140443802400030014079
:10045000000002400004024000080240000C02407C
:10046000001002400148806870470000240000200E
:1004700070B5040004D094F83D00002510B106E0EA
:10048000012070BD84F83C50204600F011F9242072
:1004900084F83D002068016821F00101016000F04E
:1004A0006FFA33492268B0FBF1F15160314A636859
:1004B000934206D94FF4967359434FF47A73B1FBC4
:1004C000F3F12368491C1962616891420BD8490015
:1004D000B0FBF1F2C2F30B02042A01D2042019E0AE
:1004E000B0FBF1F016E0A3689BB301EBC10202EB95
:1004F0000112B0FBF2F242F48042120530D04BB34D
:1005000001EBC10202EB0111B0FBF1F040F48040BD
:1005100040F400402168C861D4E90701084321681C
:100520000860D4E90310084321688860D4E9050114
:1005300008432168C8602068016841F0010101603A
:100540002564202084F83D00256384F83E50002077
:1005500070BD00E006E001EB4102B0FBF2F2CCE737
:100560000120D7E701EB4101B0FBF1F0D0E700003B
:1005700040420F00A08601002DE9F84F1F4690462B
:100580008A460446DDF82890FFF76CFF064694F88B
:100590003D0020287ED119230122434920460096A0
:1005A00000F059FC00287DD194F83C00012879D056
:1005B000012084F83C0020680168C90703D1016864
:1005C00041F0010101602068016821F400610160CF
:1005D000212084F83D00102084F83E000025256489
:1005E000C4F8248067853148E062608D20853346F9
:1005F0004A465146204600F0BDFB28B1206C84F8E5
:100600003C5004284CD00DE020684169806900907E
:1006100030E032464946204600F092FC28B1206C7A
:10062000042838D00320BDE8F88F606A411C61625D
:10063000216800780861608D401E6085208D401E15
:1006400080B2208521684A69D24352070BD450B149
:10065000606A421C626200780861608D401E60859D
:10066000208D401E208532464946204600F0CCFBB6
:100670000028D4D1208D0028CBD154F83D0B01683F
:1006800041F400710160202004F81E09E5776577C8
:100690000020C8E706E02068016841F400710160AD
:1006A0000120C0E70220BEE7020010000000FFFFAB
:1006B000F0B587B0044614216846FFF7BFFD1A491C
:1006C000206888422DD11948016841F00401016079
:1006D000016801F004010591016841F00101016028
:1006E0000068122400F0010005904FF4007001250D
:1006F000032604278DE8F10069460D48FFF7EEFD5B
:1007000028028DE8F10069460A48FFF7E7FD07482F
:100710001030016841F400010160006800F400003D
:10072000059007B0F0BD0000005C0040303802408A
:10073000000802400000024002488168027811442B
:1007400081607047240000200B4810B5016841F417
:1007500000710160016841F480610160016841F449
:1007600080710160032000F061F8002000F006F8BD
:1007700000F024F8002010BD003C024070B50D4D83
:1007800004464FF47A712878B1FBF0F00A49096801
:10079000B1FBF0F000F0C4FA48B9102C07D20022E7
:1007A0002146501E00F022F800206C6070BD012030
:1007B00070BD000024000020300000200A4808B569
:1007C000016841F480410160006800F480400090BD
:1007D0000548001F016841F080510160006800F089
:1007E0008050009008BD000044380240F0B40E4B29
:1007F0001B680C46C3F30223C3F10705042D00D97F
:100800000425191D072901D2002300E0DB1E012663
:1008100006FA05F1491E214099409E40761E164079
:100820003143F0BC00F0B5BB0CED00E0064900F030
:10083000070208684FF6FF03184040EA0220034A07
:1008400010430860704700000CED00E00000FA055E
:100850002DE9F0470E46050065D0DFF81481D8F881
:100860000000F7B200F00F00B04207D288F8007025
:10087000D8F8000000F00F00B04254D128683D4C79
:10088000810712D5400703D5206840F4E05020606E
:100890002878000703D5206840F460402060206875
:1008A000A96820F0F000084320602878C0072DD008
:1008B000304968680839012812D0022813D003286B
:1008C00011D00968890700292DDA216821F0030178
:1008D00001432160FFF7C6FD814641F2883A0EE0F0
:1008E00009688903EFE709688901ECE7FFF7BAFDBA
:1008F000A0EB0901514502D90320BDE8F08720682B
:10090000696800F00C00B0EB810FEFD1D8F800104F
:10091000404601F00F01B14207D90770006800F0AE
:100920000F00B04201D00120E7E72878400705D545
:100930002068E96820F4E050084320602878000728
:1009400006D52068296920F4604040EAC100206093
:1009500000F026F82168084AC1F30311515CC84031
:10096000064908600020FFF709FF0020C5E70000E6
:10097000003C024008380240981200083000002075
:100980000448054900680968044AC1F38221515CA2
:10099000C84070473000002008380240A812000804
:1009A000154810B5006810F00C02144813D0144913
:1009B000042A0FD0082A0ED10F4C241F2268236866
:1009C00002F03F025B0207D52068C0F38810A0FB4D
:1009D000010106E0084610BD2168C1F38811A1FBA2
:1009E00000010023FFF7F2FB2168C1F30141491C1C
:1009F0004900B0FBF1F010BD083802400024F400BB
:100A000040787D012DE9F84F050076D02878DFF891
:100A1000F8B2BE4CC00749D0DBF800105846C1F30D
:100A20008101012908D00068C0F3810002280AD1A1
:100A3000201D0068400206D52068800336D568680E
:100A40000028E2D032E06868B0F5803F10D0B0F501
:100A5000A02F206810D020F480302060206820F47F
:100A6000802020606868A0B1FFF7FCFC06460CE01F
:100A7000206840F48030F4E740F480202060F7E7FD
:100A8000FFF7F0FC801B642873D820688003F7D53B
:100A90000CE0FFF7E7FC064605E000BFFFF7E2FCCD
:100AA000801B6428F0D820688003F7D42878DFF80A
:100AB000608280074FF000093ED5DBF800105846F1
:100AC00011F00C0F09D00068C0F3810002280BD18F
:100AD0008D48001F0068400206D42068800715D5A5
:100AE000E868012809D111E0E868B8B10120C8F828
:100AF0000000FFF7B7FC064605E002E1FFF7B2FC95
:100B0000801B0228C0D820688007F7D52068296993
:100B100020F0F80040EAC10020600DE0C8F8009025
:100B2000FFF7A0FC064604E0FFF79CFC801B0228B0
:100B30001FD820688007F7D42878000722D5724E86
:100B4000744869696C3671B101210160FFF78AFC54
:100B5000074604E0FFF786FCC01B022809D830686E
:100B60008007F7D50EE0C0F80090FFF77BFC074642
:100B700005E083E0FFF776FCC01B02287ED83068D2
:100B80008007F7D42878400768D5DFF87CA10027D4
:100B90000AF1380ADAF80000C0000BD4DAF80010C5
:100BA00041F08051CAF80010DAF80000012700F087
:100BB00080500090584E3068C00510D4306840F422
:100BC00080703060FFF74EFC009005E0FFF74AFCB4
:100BD0000099401A022851D83068C005F6D54A4E0F
:100BE000A868683601280FD00528306810D020F09A
:100BF00001003060306820F004003060A868B8B1AF
:100C0000FFF730FC00900FE0306840F00100F4E79F
:100C100040F004003060F7E7FFF724FC0099411A28
:100C200041F28830814264D830688007F4D50EE004
:100C3000FFF718FC009007E0FFF714FC0099411A39
:100C400041F28830814254D830688007F4D42FB103
:100C5000DAF8001021F08051CAF80010A869C0B37A
:100C6000DBF80010C1F3810102294AD0022848466E
:100C700007D0C8F86000FFF7F5FB00E039E0054653
:100C80003AE04746C8F86000FFF7ECFB064604E090
:100C9000FFF7E8FB801B02282BD820688001F7D4DF
:100CA000D5E907010843A96A1C4A490802EB01413A
:100CB0006A6A41EA8211084395F82C1040EA016102
:100CC0001148001F016001203866FFF7CBFB054685
:100CD00005E014E0FFF7C6FB401B022809D8206896
:100CE0008001F7D50BE000BFFFF7BCFB401B0228DB
:100CF00002D90320BDE8F88F20688001F4D40020D9
:100D0000F8E70120F6E7000008380240003802400A
:100D100000004742800E4742007000400000FFFF85
:100D200010B5401EB0F1807F01D3012010BD4FF0FF
:100D3000E02460610F21601700F02BF90020A06112
:100D400007202061002010BDFEE701684A69D243F8
:100D500052050CD46FF480624A61042101640021C1
:100D600040F8301F20224273017301207047002099
:100D700070470000F8B50446C06A1E460D46174687
:100D8000042807D0012805D010F5803F02D0206B41
:100D9000122804D12068016841F480710160134673
:100DA00000224FF001112046009600F054F8A0B93F
:100DB0002069B0F5804F12D00620216800EAD510D6
:100DC00040F0F000086133463A460E49204600F0F4
:100DD00073F838B1206C042811D00320F8BD05F059
:100DE000FE0000E0E8B221680861064933463A4651
:100DF000891F204600F060F80028EBD1F8BD0120E3
:100E0000F8BD00000800010070B516460D46044606
:100E10001AE02046FFF799FF08B1012070BD681C59
:100E200012D025B1FFF71EFB801BA8420CD954F845
:100E3000400F40F0200044F81009002020602021DD
:100E400061732073032070BD20684069C043400770
:100E5000DFD4002070BD2DE9F0471E4690460D46B8
:100E60000446C1F30747DDF8209012E0701C10D053
:100E70002EB1FFF7F7FAA0EB0900B04209D9002024
:100E800044F8300F20216173A07320730320BDE864
:100E9000F0872068012F0AD0806925EA000000044D
:100EA000000C06D000214145E0D00020EFE740696A
:100EB000F3E70121F7E700002DE9F0479A46914654
:100EC0000D46044600264FF02008C1F307472AE0EC
:100ED00020684069C043400512D42068016841F48D
:100EE0000071016021686FF4806048610420206413
:100EF000266384F83D8084F83C600120BDE8F087DB
:100F0000B9F1FF3F0FD0B9F1000F05D0FFF7AAFAF2
:100F1000A0EB0A01494506D944F8306F84F80D80EA
:100F200026730320EAE72068012F07D0D0F81800C5
:100F300025EA00000004000CE0D0C9E74069F7E7AB
:100F400070B516460D4604461AE02046FFF7FDFE32
:100F500008B1012070BD681C12D025B1FFF782FADC
:100F6000801BA8420CD954F8400F40F0200044F8F0
:100F7000100900202060202161732073032070BDC0
:100F800020684069C0430006DFD4002070BDFEE742
:100F900070470907090E002806DA00F00F0000F17B
:100FA000E02080F8141D704700F1E02080F8001464
:100FB000704770477047FFF7BFBB000010B592B095
:100FC00030216846FFF73AF914210CA8FFF736F9EB
:100FD00015480024016841F080510160006800F06C
:100FE000805011901148016821F4404141F40041C2
:100FF00001600068069400F44040119002200090C7
:1010000001200390102004906846FFF7FBFC0F209E
:10101000CDE90C040E940F9400210CA81094FFF756
:1010200017FC12B010BD00004038024000700040B4
:101030001048016841F4700101600F48016841F0F7
:10104000010101600C4A00210832116002680B4B5B
:101050001A400260031D0A4A1A60026822F48022C4
:10106000026005480C30016002495806803908606A
:101070007047000088ED00E000380240FFFFF6FEF8
:1010800010300024FEE702E008C8121F08C1002A41
:10109000FAD170477047002001E001C1121F002AF9
:1010A000FBD1704708B5FFF74FFBFFF787FF754887
:1010B0000021026842F004020260026802F00402A9
:1010C0000092026842F00102026000686E4A00F07D
:1010D000010000906D4802606D4AC0E901214FF4A3
:1010E0008042C0E9031241618161C1610162FFF781
:1010F000BFF901240223674A102164480094FFF7D6
:101100003BFA4FF4FA652846FFF7D6F8614A022306
:10111000121D10215D480094FFF72EFA2846FFF7B4
:10112000CBF85C4A0223921C102158480094FFF728
:1011300023FA2846FFF7C0F8564A0223921D1021D1
:1011400052480094FFF718FA2846FFF7B5F8514ABD
:1011500002230A3210214D480094FFF70DFA284669
:10116000FFF7AAF84B4A022308321021474800949F
:10117000FFF702FA2846FFF79FF8464A02230C328F
:10118000102142480094FFF7F7F92846FFF794F83A
:10119000404A0223103210213C480094FFF7ECF93A
:1011A0002846FFF789F83B4A02230E3210213748C0
:1011B0000094FFF7E1F92846FFF77EF8354A02234D
:1011C0001232102131480094FFF7D6F92846FFF774
:1011D00073F8304A0223163210212C480094FFF78E
:1011E000CBF92846FFF768F82A4A02231432102167
:1011F00026480094FFF7C0F92846FFF75DF8254A16
:1012000002231832102121480094FFF7B5F928462F
:10121000FFF752F81F4A02231C3210211B4800948A
:10122000FFF7AAF92846FFF747F81A4A02231A32AD
:10123000102116480094FFF79FF92846FFF73CF865
:10124000144A02231E32102110480094FFF794F92B
:101250002846FFF731F80F4A0223223210210B48AB
:101260000094FFF789F92846FFF726F8094A022378
:101270002032102105480094FFF77EF92846FFF739
:101280001BF8FEE730380240005C004034000020CC
:10129000A086010000000020000000000000000007
:1012A000010203040607080900000000010203040C
:1012B000D012000800000020340000008610000852
:1012C00004130008340000205404000096100008A5
:1012D000014B01190132024B02190232044B04196D
:1012E0000432084B08190832104B10191032204BE9
:1012F0002019203201000000100000000000000052
:041300000024F400D1
:040000050800019559
:00000001FF
