:020000040800F2
:10000000A0060020A901000807150008B11100088A
:1000100005150008B5020008911A0008000000004C
:100020000000000000000000000000002B15000888
:10003000B702000800000000291500082D1500086F
:10004000C3010008C3010008C3010008C301000880
:10005000C3010008C3010008C3010008C301000870
:10006000C3010008C3010008C3010008C301000860
:10007000C3010008C3010008C3010008C301000850
:10008000C3010008C3010008C3010008000000000C
:10009000000000000000000000000000C301000894
:1000A000C3010008C3010008C3010008C301000820
:1000B000C3010008C3010008C3010008C301000810
:1000C000C3010008C3010008C3010008C301000800
:1000D000C3010008C3010008C301000800000000BC
:1000E000C3010008C3010008C301000800000000AC
:1000F000000000000000000000000000C301000834
:1001000000000000C3010008C3010008C30100088B
:1001100000000000000000000000000000000000DF
:10012000C3010008C3010008C3010008C30100089F
:10013000C3010008000000000000000000000000F3
:10014000000000000000000000000000C3010008E3
:10015000C3010008C3010008C3010008C30100086F
:10016000C3010008C30100080000000000000000F7
:10017000000000000000000000000000000000007F
:1001800000000000C30100080000000000000000A3
:10019000C3010008DFF80CD000F07AF800480047EF
:1001A000B11A0008A006002006488047064800470C
:1001B000FEE7FEE7FEE7FEE7FEE7FEE7FEE7FEE717
:1001C000FEE7FEE7A5150008950100082DE9F05FA0
:1001D0000546002092469B468846064681464024B6
:1001E0001BE0284641464746224600F041F8534668
:1001F0005A46C01A914110D311461846224600F0C3
:1002000028F82D1A67EB01084F46224601200021ED
:1002100000F01FF817EB00094E41201EA4F1010465
:10022000DFDC484631462A464346BDE8F09FD2B25D
:1002300001E000F8012B491EFBD270470022F6E7CF
:1002400010B513460A4604461946FFF7F0FF20464C
:1002500010BD202A04DB203A00FA02F1002070478A
:100260009140C2F1200320FA03F3194390407047F4
:10027000202A04DB203A21FA02F00021704721FAFB
:1002800002F3D040C2F12002914008431946704762
:10029000064C074D06E0E06840F0010394E80700D3
:1002A00098471034AC42F6D3FFF778FFC81B00081C
:1002B000E81B0008FEE7704770B5044600F0D8F868
:1002C0000546601C02D004480078044400F0D0F8D1
:1002D000401BA042FAD370BD040000202DE9F84F66
:1002E000DFF860B100224FF001084FF0030A4FF031
:1002F0000F090BF1040E00BF0B6808FA02F423404B
:10030000A3426ED14D68022D01D0122D0ED1D50819
:1003100000EB850CDCF820505607F70E09FA07F6BB
:10032000B5430E69BE402E43CCF8206006685500E8
:100330000F790AFA05FC07F0030726EA0C06AF401E
:10034000374307604E68012E05D0022E03D0112ED0
:1003500001D0122E0ED18668CF6826EA0C06AF4077
:10036000374387604668A6430C79C4F30014944071
:1003700034434460C6688C6826EA0C06AC403443BB
:10038000C4604C68E40056D52F4C256845F4804580
:100390002560246822F0030504F4804400942B4C6B
:1003A0002E19D6F8084895072F0F09FA07F5AC4320
:1003B000274DA84201D1002515E0264DA84201D1C4
:1003C000012510E0244DA84201D102250BE0234D68
:1003D000A84201D1032506E0214DA84202D10425FF
:1003E00001E028E00725BD402543C6F80858DBF8A2
:1003F00000405D464E689C43F60300D51C432C60CC
:10040000DEF8004075464E689C43B60300D51C4399
:100410002C600C4D08352C684E689C43F60200D5C4
:100420001C432C60074D0C352C684E689C43B6026B
:1004300000D51C432C60521C102AFFF45DAFBDE8B0
:10044000F88F0000003C0140443802400030014079
:10045000000002400004024000080240000C02407C
:10046000001002400AB1816170470904FBE70000F7
:1004700001488068704700000400002070B5040047
:1004800004D094F83D00002510B106E0012070BDB5
:1004900084F83C50204600F075F8242084F83D0094
:1004A0002068016821F00101016000F0FBF9334987
:1004B0002268B0FBF1F15160314A6368934206D97A
:1004C0004FF4967359434FF47A73B1FBF3F12368F9
:1004D000491C1962616891420BD84900B0FBF1F2E6
:1004E000C2F30B02042A01D2042019E0B0FBF1F0A0
:1004F00016E0A3689BB301EBC10202EB0112B0FB53
:10050000F2F242F48042120530D04BB301EBC1024B
:1005100002EB0111B0FBF1F040F4804040F40040E8
:100520002168C861D4E90701084321680860D4E95B
:100530000310084321688860D4E905010843216855
:10054000C8602068016841F0010101602564202035
:1005500084F83D00256384F83E50002070BD00E023
:1005600006E001EB4102B0FBF2F2CCE70120D7E755
:1005700001EB4101B0FBF1F0D0E7000040420F0079
:10058000A08601002DE9F04186B00446142168469A
:10059000FFF754FE2B4A2168DFF8AC802A4812246A
:1005A00001250326042708F11008914219D101689A
:1005B00041F0020101600068694600F00200059008
:1005C000C0208DE8F1002148FFF788FED8F8001020
:1005D00041F40011C8F80010D8F8000000F4001031
:1005E0002BE01B4A914229D1016841F004010160CE
:1005F000016801F004010591016841F00101016009
:100600000068694600F00100059050158DE8F10082
:100610001048FFF763FE4FF480708DE8F1006946E3
:100620000D48FFF75BFED8F8001041F40001C8F850
:100630000010D8F8000000F40000059006B0BDE8F6
:10064000F0810000005400403038024000040240B5
:10065000005C00400008024000000240024881683F
:100660000278114481607047040000200B4810B5E7
:10067000016841F400710160016841F4806101602A
:10068000016841F480710160032000F061F80020EE
:1006900000F006F800F024F8002010BD003C0240F5
:1006A00070B50D4D04464FF47A712878B1FBF0F027
:1006B0000A490968B1FBF0F000F06CFB48B9102C56
:1006C00007D200222146501E00F022F800206C6064
:1006D00070BD012070BD000004000020100000204B
:1006E0000A4808B5016841F480410160006800F4DF
:1006F000804000900548001F016841F08051016072
:10070000006800F08050009008BD000044380240AE
:10071000F0B40E4B1B680C46C3F30223C3F107056C
:10072000042D00D90425191D072901D2002300E05A
:10073000DB1E012606FA05F1491E214099409E4024
:10074000761E16403143F0BC00F0DEBE0CED00E03A
:10075000064900F0070208684FF6FF03184040EA18
:100760000220034A10430860704700000CED00E0CF
:100770000000FA052DE9F0470E46050065D0DFF8C8
:100780001481D8F80000F7B200F00F00B04207D291
:1007900088F80070D8F8000000F00F00B04254D183
:1007A00028683D4C810712D5400703D5206840F4E6
:1007B000E05020602878000703D5206840F46040AE
:1007C00020602068A96820F0F000084320602878A5
:1007D000C0072DD0304968680839012812D0022896
:1007E00013D0032811D00968890700292DDA216860
:1007F00021F0030101432160FFF73AFE814641F2F7
:10080000883A0EE009688903EFE709688901ECE797
:10081000FFF72EFEA0EB0901514502D90320BDE8E8
:10082000F0872068696800F00C00B0EB810FEFD111
:10083000D8F80010404601F00F01B14207D9077007
:10084000006800F00F00B04201D00120E7E72878EF
:10085000400705D52068E96820F4E050084320608F
:100860002878000706D52068296920F4604040EA0E
:10087000C100206000F036F82168084AC1F3031176
:10088000515CC840064908600020FFF709FF0020BE
:10089000C5E70000003C024008380240B01B0008D9
:1008A000100000200448054900680968044AC1F3A3
:1008B0008221515CC8407047100000200838024077
:1008C000C01B00080448054900680968044AC1F3D0
:1008D0004231515CC8407047100000200838024087
:1008E000C01B0008154810B5006810F00C02144831
:1008F00013D01449042A0FD0082A0ED10F4C241FFC
:100900002268236802F03F025B0207D52068C0F32B
:100910008810A0FB010106E0084610BD2168C1F364
:100920008811A1FB00010023FFF750FC2168C1F3EF
:100930000141491C4900B0FBF1F010BD08380240EC
:100940000024F40040787D012DE9F84F050076D0B1
:100950002878DFF8F8B2BE4CC00749D0DBF80010A9
:100960005846C1F38101012908D00068C0F3810015
:1009700002280AD1201D0068400206D520688003A5
:1009800036D568680028E2D032E06868B0F5803F6C
:1009900010D0B0F5A02F206810D020F48030206057
:1009A000206820F4802020606868A0B1FFF760FD17
:1009B00006460CE0206840F48030F4E740F48020E4
:1009C0002060F7E7FFF754FD801B642873D8206888
:1009D0008003F7D50CE0FFF74BFD064605E000BFAE
:1009E000FFF746FD801B6428F0D820688003F7D409
:1009F0002878DFF8608280074FF000093ED5DBF8E9
:100A00000010584611F00C0F09D00068C0F38100A7
:100A100002280BD18D48001F0068400206D42068D0
:100A2000800715D5E868012809D111E0E868B8B158
:100A30000120C8F80000FFF71BFD064605E002E1B3
:100A4000FFF716FD801B0228C0D820688007F7D565
:100A50002068296920F0F80040EAC10020600DE01C
:100A6000C8F80090FFF704FD064604E0FFF700FD1C
:100A7000801B02281FD820688007F7D42878000739
:100A800022D5724E744869696C3671B101210160DA
:100A9000FFF7EEFC074604E0FFF7EAFCC01B022864
:100AA00009D830688007F7D50EE0C0F80090FFF74E
:100AB000DFFC074605E083E0FFF7DAFCC01B0228F5
:100AC0007ED830688007F7D42878400768D5DFF8EB
:100AD0007CA100270AF1380ADAF80000C0000BD424
:100AE000DAF8001041F08051CAF80010DAF800007E
:100AF000012700F080500090584E3068C00510D497
:100B0000306840F480703060FFF7B2FC009005E080
:100B1000FFF7AEFC0099401A022851D83068C00592
:100B2000F6D54A4EA868683601280FD005283068E7
:100B300010D020F001003060306820F004003060F8
:100B4000A868B8B1FFF794FC00900FE0306840F05F
:100B50000100F4E740F004003060F7E7FFF788FC9D
:100B60000099411A41F28830814264D83068800788
:100B7000F4D50EE0FFF77CFC009007E0FFF778FC6F
:100B80000099411A41F28830814254D83068800778
:100B9000F4D42FB1DAF8001021F08051CAF8001017
:100BA000A869C0B3DBF80010C1F3810102294AD063
:100BB0000228484607D0C8F86000FFF759FC00E05B
:100BC00039E005463AE04746C8F86000FFF750FCB8
:100BD000064604E0FFF74CFC801B02282BD8206857
:100BE0008001F7D4D5E907010843A96A1C4A4908DE
:100BF00002EB01416A6A41EA8211084395F82C1020
:100C000040EA01611148001F016001203866FFF7CA
:100C10002FFC054605E014E0FFF72AFC401B0228E4
:100C200009D820688001F7D50BE000BFFFF720FC52
:100C3000401B022802D90320BDE8F88F20688001FC
:100C4000F4D40020F8E70120F6E70000083802405D
:100C50000038024000004742800E474200700040CA
:100C60000000FFFF70B5040005D00025A56294F8D0
:100C7000510010B106E0012070BD84F850502046AC
:100C800000F030F8022084F851002068016821F05B
:100C900040010160D4E901010843D4E90312114382
:100CA000084361690843218B01F400710843E1693D
:100CB0000843216A0843A16A084321680860A069C3
:100CC000042101EA1040616A0843216848602068F5
:100CD000C16921F40061C1616565012084F851009A
:100CE000002070BD30B587B0044614216846FFF778
:100CF000A5FA234D22680021224802230324AA4298
:100D00001CD1204A1032156845F400451560126860
:100D100002F400420592026842F004020260006898
:100D2000CDE9021400F0040005904FF4E050CDE945
:100D3000000306200490694613481DE0134DAA42A3
:100D40001CD1104A1432156845F40055156012681C
:100D500002F400520592026842F01002026000683C
:100D6000CDE9021400F0100005907420CDE90003D5
:100D70000520049069460648FFF7B0FA07B030BD79
:100D8000003C00403038024000080240003401407E
:100D90000010024010B5401EB0F1807F01D3012049
:100DA00010BD4FF0E02460610F21601700F0ACFB34
:100DB0000020A06107202061002010BD10B590F830
:100DC0003820012A25D0012280F83820CA688C6892
:100DD00022F4407222434C6822F4806222430C6861
:100DE00022F4006222430C6922F4805222434C69AF
:100DF00022F4005222438C6922F48042224322F4DE
:100E00000041026800232143516480F838300020FB
:100E100010BD022010BD30B590F83820012A20D036
:100E2000012280F83820022380F8393003685C689A
:100E300024F070045C6003685C680D682C435C609F
:100E400003689C6824F080049C6003689C6849687F
:100E50000C439C6080F83920002180F83810084647
:100E600030BD022030BD000030B587B004461421EB
:100E70006846FFF7E3F924682A4800222A4902233A
:100E8000012584420FD1086840F01000086008680E
:100E9000694600F0100005904FF420600090CDE905
:100EA0000132224821E02248B4F1804F10D0214D78
:100EB000AC4221D10C6844F001040C60096801F0D7
:100EC00001010591C0210091CDE90132694625E07B
:100ED0000C6844F001040C60096801F001010591FF
:100EE0000F210091CDE901326946CDE9032500BF0C
:100EF000FFF7F4F907B030BD0F488442FAD1086813
:100F000040F0080008600868694600F00800059095
:100F10004FF470400090CDE901320848CDE9032339
:100F2000E6E70000000001403038024000100240B7
:100F3000000002400004004000080040000C024095
:100F400070B5044690F838000D4601280DD00126F2
:100F500084F83860022084F8390042B1042A18D09D
:100F6000082A2AD00C2A4DD139E0022070BD206811
:100F700000F096FB2068816941F0080181612068DA
:100F8000816921F004018161206881692A69114326
:100F900011E0206800F0ACFB2068816941F4006139
:100FA00081612068816921F48061816120688169A3
:100FB0002A6941EA0221816124E0206800F0C4FB33
:100FC0002068C16941F00801C1612068C16921F050
:100FD0000401C1612068C1692A69114311E02068D8
:100FE00000F0DEFB2068C16941F40061C161206846
:100FF000C16921F48061C1612068C1692A6941EA3F
:101000000221C16184F83960002084F8380070BD85
:1010100010B5040003D094F8390010B107E00120A6
:1010200010BD002084F83800204600F00DF80220A2
:1010300084F83900211D206800F0DEFA012084F8D0
:101040003900002010BD000008B501681448814235
:1010500001D1144810E01348001FB1F1804F0BD0AC
:10106000114A914210D1016841F00201016000680B
:1010700000F00200009008BD016841F0010101602C
:10108000006800F00100F5E7084A9142F3D10168D9
:1010900041F004010160006800F00400EAE700008C
:1010A00000000140443802400004004000080040B5
:1010B00010B504460068012200F0E6FA07492068EE
:1010C000884203D1416C41F40041416420680168C9
:1010D00041F001010160002010BD0000000001404E
:1010E00070B5040004D094F83900002510B106E072
:1010F000012070BD84F83850204600F023F82420E9
:1011000084F839002068C16821F40051C16020468C
:1011100000F068FB2068016921F4904101612068BA
:10112000416921F02A0141612068C16841F4005100
:10113000C160E563202084F8390084F83A0000207B
:1011400070BD000010B586B0044614216846FFF754
:1011500075F814492068884221D11348016841F08C
:1011600010010160006800F0100005900E4814386E
:10117000016841F0010101600068694600F001006A
:1011800005904FF4C0600090022001900120029071
:1011900003200390072004900448FFF79FF806B04F
:1011A00010BD000000100140443802400000024021
:1011B000FEE700002DE9F04387B014216846FFF7F1
:1011C0003DF83B480024016841F0100101600168CE
:1011D00001F010010591016841F00401016001680E
:1011E00001F004010591016841F08001016001688E
:1011F00001F080010591016841F001010160016881
:1012000001F001010591016841F0020101600168EE
:1012100001F002010591016841F0080101600068D8
:10122000244F00F008004CF2CF050590002229461B
:101230003846FFF717F9DFF880804FF44056002258
:1012400031464046FFF70EF9DFF870900022314634
:101250004846FFF707F900950125CDE90154694695
:1012600038460394FFF73AF83020CDE90004694688
:1012700038460294FFF732F87011CDE90004694650
:1012800040460294FFF72AF80096CDE901546946DA
:1012900040460394FFF722F80096CDE901546946D1
:1012A00048460394FFF71AF807B0BDE8F083000042
:1012B00030380240000802400010024000040240A2
:1012C0000B480A494FF4007201604FF4827141608B
:1012D00000218160C1600161C0E90512C161016244
:1012E000416281620A21C162FFF7BCBC003C004040
:1012F000BC0000200B480A494FF4802201604FF4E3
:101300008271416000218160C1600161C0E9051204
:10131000C1610162416281620A21C162FFF7A2BC20
:10132000003401401401002010B590B000240E9448
:101330001C2168460F94FEF781FF1C2107A8FEF7C9
:101340007DFF1B481949C0E900148460C460046132
:101350004461FFF75DFE0E940EA915480F94FFF748
:101360005AFD6020CDE9000402940394049405948E
:10137000002269460E480694FFF7E2FD0422694602
:101380000B48FFF7DDFD0794089409944FF40050D3
:101390000A94CDE90B4007A905480D94FFF70EFD0F
:1013A0000348FFF761FD10B010BD000000000140D0
:1013B0006C01002010B58AB0002407941C216846F7
:1013C0000894FEF73BFF17484FF08041C0E9001436
:1013D0008460C4600461FFF71BFE079407A91148ED
:1013E0000894FFF718FD6020CDE900040294002264
:1013F00069460C480494FFF7A3FD04226946094896
:10140000FFF79EFD082269460648FFF799FD0C226A
:1014100069460448FFF794FD0248FFF725FD0AB02E
:1014200010BD0000A801002010B58AB00024079468
:101430001C2168460894FEF701FF14481249016018
:101440002921C0E9011440F2CF71C0E90314FFF76C
:10145000DFFD079407A90D480894FFF7DCFC602026
:10146000CDE9000402940022694608480494FFF77D
:1014700067FD042269460548FFF762FD0348FFF750
:10148000F3FC0AB010BD000000040040E40100209D
:1014900010B58AB0002407941C2168460894FEF712
:1014A000CDFE17481549C0E900148460C46004618A
:1014B000FFF7AEFD079407A911480894FFF7ABFCAE
:1014C0006020CDE900040294002269460C4804948F
:1014D000FFF736FD042269460948FFF731FD08226F
:1014E00069460748FFF72CFD0C2269460448FFF7C0
:1014F00027FD0348FFF7B8FC0AB010BD0008004004
:1015000020020020FEE770470907090E002806DACE
:1015100000F00F0000F1E02080F8141D704700F18A
:10152000E02080F80014704770477047FFF796B8C6
:1015300010B592B030216846FEF780FE14210CA849
:10154000FEF77CFE15480024016841F080510160DF
:10155000006800F0805011901148016821F440416A
:1015600041F4004101600068069400F4404011908D
:101570000220009001200390102004906846FFF79D
:10158000E3F90F20CDE90C040E940F9400210CA870
:101590001094FFF7EFF812B010BD00004038024081
:1015A000007000401048016841F4700101600F486C
:1015B000016841F0010101600C4A0021083211600C
:1015C00002680B4B1A400260031D0A4A1A60026847
:1015D00022F48022026005480C300160024958065E
:1015E000803908607047000088ED00E00038024054
:1015F000FFFFF6FE10300024F0B502681B4B1C4CB8
:101600009F031C4D1C4E984207D0B84205D0A04203
:1016100003D0A84201D0B04204D122F0700C4A6835
:1016200042EA0C02984210D0B8420ED0A0420CD030
:10163000A8420AD0B04208D0104CA04205D0104CAD
:10164000A04202D00F4CA04203D122F44074CA68D9
:10165000224302608A68C2620A688262984201D1AB
:101660000969016301214161F0BD000000000140F2
:101670000004004000080040000C00400040014011
:10168000004401400048014010B50123046A8B402A
:101690009C430462036A8A401343036210BD000046
:1016A00030B5026A22F001020262026A436884696C
:1016B00024F073050C682C4322F002058A682A4343
:1016C0000A4DA8420BD122F00805CA6823F44073E2
:1016D0002A434D6922F004021D438B692B4343606A
:1016E000846149684163026230BD0000000001402E
:1016F00030B5026A22F010020262026A436884690D
:101700000D6824F4E64444EA05248D6822F02002A2
:1017100042EA05120B4DA8420ED1CD6822F080029C
:1017200042EA05124D6923F4406343EA85038D695B
:1017300022F0400243EA8503436084614968816383
:10174000026230BD0000014030B5026A22F48072AE
:101750000262036A4268C46923F4007324F07305CB
:101760000C682C438D6843EA05230C4DA8420ED12A
:10177000CD6823F4006343EA05234D6922F4405207
:1017800042EA05128D6923F4806342EA0512426041
:10179000C4614968C163036230BD000000000140BC
:1017A00030B5026A22F480520262046A4268C36958
:1017B0000D6823F4E64343EA05238D6824F40054BE
:1017C00044EA0534064DA84204D14D6922F4804212
:1017D00042EA85124260C36149680164046230BD17
:1017E000000001402DE9F04104460068016921F440
:1017F0004052E168114301612168C86849F20C62F6
:1018000090432369A268E5691A4363692B431A432D
:101810000243CA602168486920F44072A0691043FD
:101820004861E1696425B1F5004F9748974A2168FE
:101830004FF032083FD0914201D081427CD1FFF776
:1018400041F800EBC00101EB001061688900B0FBBA
:10185000F1F6FFF737F800EBC00101EB001061680B
:101860008900B0FBF1F0B0FBF5F06FF018014843D0
:1018700006EB800108EB0110B0FBF5F000F0F0067C
:10188000FFF720F800EBC00101EB00106168890050
:10189000B0FBF1F0B0FBF5F006EB0016FFF712F825
:1018A00000EBC00101EB001061688900B0FBF1F7AB
:1018B000FFF708F8D2E0914201D081423DD1FFF715
:1018C00001F800EBC00101EB001061684900B0FBBA
:1018D000F1F0B0FBF5F00601FEF7F4FF00EBC001FC
:1018E00001EB001061684900B0FBF1F7FEF7EAFF79
:1018F00000EBC00101EB001061684900B0FBF1F0A2
:10190000B0FBF5F06FF01801484307EB800108EBDE
:10191000C100B0FBF5F000F0F80006EB4006FEF762
:10192000D1FF00EBC00101EB001061684900B0FB82
:10193000F1F7FEF7C7FF3CE055E0FEF7B3FF00EB21
:10194000C00101EB001061684900B0FBF1F0B0FB91
:10195000F5F00601FEF7A6FF00EBC00101EB001059
:1019600061684900B0FBF1F7FEF79CFF00EBC00196
:1019700001EB001061684900B0FBF1F0B0FBF5F03D
:101980006FF01801484307EB800108EBC100B0FB82
:10199000F5F000F0F80006EB4006FEF783FF00EBE1
:1019A000C00101EB001061684900B0FBF1F7FEF7E0
:1019B00079FF00EBC00101EB001061684900B0FB4A
:1019C000F1F0B0FBF5F06FF01801484307EB800130
:1019D00008EBC100B0FBF5F000F0070021683044CF
:1019E0008860BDE8F081FEF75DFF00EBC00101EB10
:1019F000001061688900B0FBF1F6FEF753FF00EBC1
:101A0000C00101EB001061688900B0FBF1F0B0FB90
:101A1000F5F06FF01801484306EB800108EB011068
:101A2000B0FBF5F000F0F006FEF73CFF00EBC00164
:101A300001EB001061688900B0FBF1F0B0FBF5F03C
:101A400006EB0016FEF72EFF00EBC00101EB0010C5
:101A500061688900B0FBF1F7FEF724FF00EBC001DD
:101A600001EB001061688900B0FBF1F0B0FBF5F00C
:101A70006FF01801484307EB800108EB0110B0FB41
:101A8000F5F000F00F00A9E700140140001001403C
:101A9000FEE702E008C8121F08C1002AFAD1704709
:101AA0007047002001E001C1121F002AFBD17047DE
:101AB000FEF7DCFDFFF73CFDFFF77CFB27482649DE
:101AC000274D00240160C0E901540E14C0E903460B
:101AD00044618461C4610462FEF7D0FC1F4821495F
:101AE00054300160C0E90154C0E903464461846197
:101AF000C4610462FEF7C2FCFFF7E2FBFFF7FAFBEA
:101B0000FFF712FCFFF756FCFFF78EFCFFF7C0FC57
:101B10001648154901604FF4E131C0E901140C2168
:101B2000C460C0E904418461C461FFF7D9FA0F4879
:101B300000217838FFF7BCFA0C4804217838FFF709
:101B4000B7FA0B4C4FF4FA756420FEF7B5FB284644
:101B5000258000F00FF8F7E7005400401400002043
:101B6000A0860100005C0040001001405C020020E3
:101B70000000002000B587B06021CDE900100020F2
:101B800002900246049069460848FFF7D9F90422FA
:101B900069460648FFF7D4F900210448FFF788FAA0
:101BA00004210248FFF784FA07B000BDE4010020D9
:101BB00000000000000000000102030406070809FD
:101BC0000000000001020304E81B000800000020E0
:101BD00014000000921A0008FC1B000814000020EA
:101BE0008C060000A21A000800000000010000009E
:0C1BF00010000000000000000024F400C1
:040000050800019559
:00000001FF
